{
  "contractName": "Photo",
  "abi": [
    {
      "inputs": [],
      "stateMutability": "nonpayable",
      "type": "constructor"
    },
    {
      "anonymous": false,
      "inputs": [
        {
          "indexed": true,
          "internalType": "address",
          "name": "owner",
          "type": "address"
        },
        {
          "indexed": true,
          "internalType": "address",
          "name": "approved",
          "type": "address"
        },
        {
          "indexed": true,
          "internalType": "uint256",
          "name": "tokenId",
          "type": "uint256"
        }
      ],
      "name": "Approval",
      "type": "event"
    },
    {
      "anonymous": false,
      "inputs": [
        {
          "indexed": true,
          "internalType": "address",
          "name": "owner",
          "type": "address"
        },
        {
          "indexed": true,
          "internalType": "address",
          "name": "operator",
          "type": "address"
        },
        {
          "indexed": false,
          "internalType": "bool",
          "name": "approved",
          "type": "bool"
        }
      ],
      "name": "ApprovalForAll",
      "type": "event"
    },
    {
      "anonymous": false,
      "inputs": [
        {
          "indexed": true,
          "internalType": "address",
          "name": "from",
          "type": "address"
        },
        {
          "indexed": true,
          "internalType": "address",
          "name": "to",
          "type": "address"
        },
        {
          "indexed": true,
          "internalType": "uint256",
          "name": "tokenId",
          "type": "uint256"
        }
      ],
      "name": "Transfer",
      "type": "event"
    },
    {
      "inputs": [
        {
          "internalType": "address",
          "name": "to",
          "type": "address"
        },
        {
          "internalType": "uint256",
          "name": "tokenId",
          "type": "uint256"
        }
      ],
      "name": "approve",
      "outputs": [],
      "stateMutability": "nonpayable",
      "type": "function"
    },
    {
      "inputs": [
        {
          "internalType": "address",
          "name": "owner",
          "type": "address"
        }
      ],
      "name": "balanceOf",
      "outputs": [
        {
          "internalType": "uint256",
          "name": "",
          "type": "uint256"
        }
      ],
      "stateMutability": "view",
      "type": "function",
      "constant": true
    },
    {
      "inputs": [
        {
          "internalType": "address",
          "name": "",
          "type": "address"
        }
      ],
      "name": "balances",
      "outputs": [
        {
          "internalType": "uint256",
          "name": "",
          "type": "uint256"
        }
      ],
      "stateMutability": "view",
      "type": "function",
      "constant": true
    },
    {
      "inputs": [
        {
          "internalType": "uint256",
          "name": "tokenId",
          "type": "uint256"
        }
      ],
      "name": "getApproved",
      "outputs": [
        {
          "internalType": "address",
          "name": "",
          "type": "address"
        }
      ],
      "stateMutability": "view",
      "type": "function",
      "constant": true
    },
    {
      "inputs": [
        {
          "internalType": "address",
          "name": "owner",
          "type": "address"
        },
        {
          "internalType": "address",
          "name": "operator",
          "type": "address"
        }
      ],
      "name": "isApprovedForAll",
      "outputs": [
        {
          "internalType": "bool",
          "name": "",
          "type": "bool"
        }
      ],
      "stateMutability": "view",
      "type": "function",
      "constant": true
    },
    {
      "inputs": [
        {
          "internalType": "uint256",
          "name": "",
          "type": "uint256"
        }
      ],
      "name": "listings",
      "outputs": [
        {
          "internalType": "uint256",
          "name": "price",
          "type": "uint256"
        },
        {
          "internalType": "address",
          "name": "seller",
          "type": "address"
        }
      ],
      "stateMutability": "view",
      "type": "function",
      "constant": true
    },
    {
      "inputs": [],
      "name": "name",
      "outputs": [
        {
          "internalType": "string",
          "name": "",
          "type": "string"
        }
      ],
      "stateMutability": "view",
      "type": "function",
      "constant": true
    },
    {
      "inputs": [
        {
          "internalType": "uint256",
          "name": "tokenId",
          "type": "uint256"
        }
      ],
      "name": "ownerOf",
      "outputs": [
        {
          "internalType": "address",
          "name": "",
          "type": "address"
        }
      ],
      "stateMutability": "view",
      "type": "function",
      "constant": true
    },
    {
      "inputs": [
        {
          "internalType": "uint256",
          "name": "",
          "type": "uint256"
        }
      ],
      "name": "photos",
      "outputs": [
        {
          "internalType": "string",
          "name": "",
          "type": "string"
        }
      ],
      "stateMutability": "view",
      "type": "function",
      "constant": true
    },
    {
      "inputs": [
        {
          "internalType": "address",
          "name": "from",
          "type": "address"
        },
        {
          "internalType": "address",
          "name": "to",
          "type": "address"
        },
        {
          "internalType": "uint256",
          "name": "tokenId",
          "type": "uint256"
        }
      ],
      "name": "safeTransferFrom",
      "outputs": [],
      "stateMutability": "nonpayable",
      "type": "function"
    },
    {
      "inputs": [
        {
          "internalType": "address",
          "name": "from",
          "type": "address"
        },
        {
          "internalType": "address",
          "name": "to",
          "type": "address"
        },
        {
          "internalType": "uint256",
          "name": "tokenId",
          "type": "uint256"
        },
        {
          "internalType": "bytes",
          "name": "_data",
          "type": "bytes"
        }
      ],
      "name": "safeTransferFrom",
      "outputs": [],
      "stateMutability": "nonpayable",
      "type": "function"
    },
    {
      "inputs": [
        {
          "internalType": "address",
          "name": "operator",
          "type": "address"
        },
        {
          "internalType": "bool",
          "name": "approved",
          "type": "bool"
        }
      ],
      "name": "setApprovalForAll",
      "outputs": [],
      "stateMutability": "nonpayable",
      "type": "function"
    },
    {
      "inputs": [
        {
          "internalType": "bytes4",
          "name": "interfaceId",
          "type": "bytes4"
        }
      ],
      "name": "supportsInterface",
      "outputs": [
        {
          "internalType": "bool",
          "name": "",
          "type": "bool"
        }
      ],
      "stateMutability": "view",
      "type": "function",
      "constant": true
    },
    {
      "inputs": [],
      "name": "symbol",
      "outputs": [
        {
          "internalType": "string",
          "name": "",
          "type": "string"
        }
      ],
      "stateMutability": "view",
      "type": "function",
      "constant": true
    },
    {
      "inputs": [
        {
          "internalType": "uint256",
          "name": "tokenId",
          "type": "uint256"
        }
      ],
      "name": "tokenURI",
      "outputs": [
        {
          "internalType": "string",
          "name": "",
          "type": "string"
        }
      ],
      "stateMutability": "view",
      "type": "function",
      "constant": true
    },
    {
      "inputs": [
        {
          "internalType": "address",
          "name": "from",
          "type": "address"
        },
        {
          "internalType": "address",
          "name": "to",
          "type": "address"
        },
        {
          "internalType": "uint256",
          "name": "tokenId",
          "type": "uint256"
        }
      ],
      "name": "transferFrom",
      "outputs": [],
      "stateMutability": "nonpayable",
      "type": "function"
    },
    {
      "inputs": [
        {
          "internalType": "string",
          "name": "",
          "type": "string"
        }
      ],
      "name": "users",
      "outputs": [
        {
          "internalType": "address",
          "name": "seller",
          "type": "address"
        },
        {
          "internalType": "address",
          "name": "buyer",
          "type": "address"
        }
      ],
      "stateMutability": "view",
      "type": "function",
      "constant": true
    },
    {
      "inputs": [
        {
          "internalType": "uint256",
          "name": "price",
          "type": "uint256"
        },
        {
          "internalType": "string",
          "name": "_photo",
          "type": "string"
        }
      ],
      "name": "mint",
      "outputs": [],
      "stateMutability": "nonpayable",
      "type": "function"
    },
    {
      "inputs": [
        {
          "internalType": "string[]",
          "name": "arr",
          "type": "string[]"
        },
        {
          "internalType": "string",
          "name": "searchFor",
          "type": "string"
        }
      ],
      "name": "indexOf",
      "outputs": [
        {
          "internalType": "uint256",
          "name": "",
          "type": "uint256"
        },
        {
          "internalType": "bool",
          "name": "",
          "type": "bool"
        }
      ],
      "stateMutability": "pure",
      "type": "function",
      "constant": true
    },
    {
      "inputs": [
        {
          "internalType": "string",
          "name": "_photo",
          "type": "string"
        }
      ],
      "name": "purchase",
      "outputs": [],
      "stateMutability": "payable",
      "type": "function",
      "payable": true
    },
    {
      "inputs": [
        {
          "internalType": "string",
          "name": "_photo",
          "type": "string"
        }
      ],
      "name": "getUsers",
      "outputs": [
        {
          "internalType": "address",
          "name": "seller",
          "type": "address"
        },
        {
          "internalType": "address",
          "name": "buyer",
          "type": "address"
        }
      ],
      "stateMutability": "view",
      "type": "function",
      "constant": true
    }
  ],
  "bytecode": "0x60806040523480156200001157600080fd5b506040518060400160405280600581526020017f50686f746f0000000000000000000000000000000000000000000000000000008152506040518060400160405280600581526020017f50484f544f000000000000000000000000000000000000000000000000000000815250816000908051906020019062000096929190620000b8565b508060019080519060200190620000af929190620000b8565b505050620001cd565b828054620000c69062000197565b90600052602060002090601f016020900481019282620000ea576000855562000136565b82601f106200010557805160ff191683800117855562000136565b8280016001018555821562000136579182015b828111156200013557825182559160200191906001019062000118565b5b50905062000145919062000149565b5090565b5b80821115620001645760008160009055506001016200014a565b5090565b7f4e487b7100000000000000000000000000000000000000000000000000000000600052602260045260246000fd5b60006002820490506001821680620001b057607f821691505b60208210811415620001c757620001c662000168565b5b50919050565b6138ca80620001dd6000396000f3fe60806040526004361061012a5760003560e01c8063689e1c03116100ab578063af2a5d6f1161006f578063af2a5d6f1461041b578063b88d4fde14610458578063bf02c9fc14610481578063c87b56dd146104bf578063de74e57b146104fc578063e985e9c51461053a5761012a565b8063689e1c031461032357806370a082311461036157806377097fc81461039e57806395d89b41146103c7578063a22cb465146103f25761012a565b806323b872dd116100f257806323b872dd1461023b57806327e235e31461026457806342842e0e146102a157806359f5e0ce146102ca5780636352211e146102e65761012a565b806301ffc9a71461012f57806306fdde031461016c578063081812fc14610197578063095ea7b3146101d45780631b4e5b94146101fd575b600080fd5b34801561013b57600080fd5b50610156600480360381019061015191906122fb565b610577565b6040516101639190612343565b60405180910390f35b34801561017857600080fd5b50610181610659565b60405161018e91906123f7565b60405180910390f35b3480156101a357600080fd5b506101be60048036038101906101b9919061244f565b6106eb565b6040516101cb91906124bd565b60405180910390f35b3480156101e057600080fd5b506101fb60048036038101906101f69190612504565b610770565b005b34801561020957600080fd5b50610224600480360381019061021f919061275f565b610888565b6040516102329291906127e6565b60405180910390f35b34801561024757600080fd5b50610262600480360381019061025d919061280f565b610935565b005b34801561027057600080fd5b5061028b60048036038101906102869190612862565b61098e565b604051610298919061288f565b60405180910390f35b3480156102ad57600080fd5b506102c860048036038101906102c3919061280f565b6109a6565b005b6102e460048036038101906102df91906128aa565b6109c6565b005b3480156102f257600080fd5b5061030d6004803603810190610308919061244f565b610dd8565b60405161031a91906124bd565b60405180910390f35b34801561032f57600080fd5b5061034a600480360381019061034591906128aa565b610e8a565b6040516103589291906128f3565b60405180910390f35b34801561036d57600080fd5b5061038860048036038101906103839190612862565b610f04565b604051610395919061288f565b60405180910390f35b3480156103aa57600080fd5b506103c560048036038101906103c0919061291c565b610fbc565b005b3480156103d357600080fd5b506103dc6111c8565b6040516103e991906123f7565b60405180910390f35b3480156103fe57600080fd5b50610419600480360381019061041491906129a4565b61125a565b005b34801561042757600080fd5b50610442600480360381019061043d919061244f565b6113db565b60405161044f91906123f7565b60405180910390f35b34801561046457600080fd5b5061047f600480360381019061047a9190612a85565b611487565b005b34801561048d57600080fd5b506104a860048036038101906104a391906128aa565b6114e2565b6040516104b69291906128f3565b60405180910390f35b3480156104cb57600080fd5b506104e660048036038101906104e1919061244f565b6115d2565b6040516104f391906123f7565b60405180910390f35b34801561050857600080fd5b50610523600480360381019061051e919061244f565b611679565b604051610531929190612b08565b60405180910390f35b34801561054657600080fd5b50610561600480360381019061055c9190612b31565b6116bd565b60405161056e9190612343565b60405180910390f35b60007f80ac58cd000000000000000000000000000000000000000000000000000000007bffffffffffffffffffffffffffffffffffffffffffffffffffffffff1916827bffffffffffffffffffffffffffffffffffffffffffffffffffffffff1916148061064257507f5b5e139f000000000000000000000000000000000000000000000000000000007bffffffffffffffffffffffffffffffffffffffffffffffffffffffff1916827bffffffffffffffffffffffffffffffffffffffffffffffffffffffff1916145b80610652575061065182611751565b5b9050919050565b60606000805461066890612ba0565b80601f016020809104026020016040519081016040528092919081815260200182805461069490612ba0565b80156106e15780601f106106b6576101008083540402835291602001916106e1565b820191906000526020600020905b8154815290600101906020018083116106c457829003601f168201915b5050505050905090565b60006106f6826117bb565b610735576040517f08c379a000000000000000000000000000000000000000000000000000000000815260040161072c90612c44565b60405180910390fd5b6004600083815260200190815260200160002060009054906101000a900473ffffffffffffffffffffffffffffffffffffffff169050919050565b600061077b82610dd8565b90508073ffffffffffffffffffffffffffffffffffffffff168373ffffffffffffffffffffffffffffffffffffffff1614156107ec576040517f08c379a00000000000000000000000000000000000000000000000000000000081526004016107e390612cd6565b60405180910390fd5b8073ffffffffffffffffffffffffffffffffffffffff1661080b611827565b73ffffffffffffffffffffffffffffffffffffffff16148061083a575061083981610834611827565b6116bd565b5b610879576040517f08c379a000000000000000000000000000000000000000000000000000000000815260040161087090612d68565b60405180910390fd5b610883838361182f565b505050565b60008060005b845181101561092557836040516020016108a89190612dc4565b604051602081830303815290604052805190602001208582815181106108d1576108d0612ddb565b5b60200260200101516040516020016108e99190612dc4565b60405160208183030381529060405280519060200120141561091257806001925092505061092e565b808061091d90612e39565b91505061088e565b50600080915091505b9250929050565b61093f83826118e8565b61097e576040517f08c379a000000000000000000000000000000000000000000000000000000000815260040161097590612ef4565b60405180910390fd5b6109898383836119c6565b505050565b60066020528060005260406000206000915090505481565b6109c183838360405180602001604052806000815250611487565b505050565b600080610aa46007805480602002602001604051908101604052809291908181526020016000905b82821015610a9a578382906000526020600020018054610a0d90612ba0565b80601f0160208091040260200160405190810160405280929190818152602001828054610a3990612ba0565b8015610a865780601f10610a5b57610100808354040283529160200191610a86565b820191906000526020600020905b815481529060010190602001808311610a6957829003601f168201915b5050505050815260200190600101906109ee565b5050505084610888565b9150915080610ae8576040517f08c379a0000000000000000000000000000000000000000000000000000000008152600401610adf90612f60565b60405180910390fd5b6000829050600060096000838152602001908152602001600020604051806040016040529081600082015481526020016001820160009054906101000a900473ffffffffffffffffffffffffffffffffffffffff1673ffffffffffffffffffffffffffffffffffffffff1673ffffffffffffffffffffffffffffffffffffffff168152505090503373ffffffffffffffffffffffffffffffffffffffff16610b8f83610dd8565b73ffffffffffffffffffffffffffffffffffffffff161415610be6576040517f08c379a0000000000000000000000000000000000000000000000000000000008152600401610bdd90612fcc565b60405180910390fd5b80600001513414610c2c576040517f08c379a0000000000000000000000000000000000000000000000000000000008152600401610c2390613038565b60405180910390fd5b3460066000836020015173ffffffffffffffffffffffffffffffffffffffff1673ffffffffffffffffffffffffffffffffffffffff1681526020019081526020016000206000828254610c7f9190613058565b92505081905550610c95816020015133846109a6565b6040518060400160405280826020015173ffffffffffffffffffffffffffffffffffffffff1681526020013373ffffffffffffffffffffffffffffffffffffffff16815250600a86604051610cea9190612dc4565b908152602001604051809103902060008201518160000160006101000a81548173ffffffffffffffffffffffffffffffffffffffff021916908373ffffffffffffffffffffffffffffffffffffffff16021790555060208201518160010160006101000a81548173ffffffffffffffffffffffffffffffffffffffff021916908373ffffffffffffffffffffffffffffffffffffffff1602179055509050506000816020015190508073ffffffffffffffffffffffffffffffffffffffff166108fc349081150290604051600060405180830381858888f19350505050610dd057600080fd5b505050505050565b6000806002600084815260200190815260200160002060009054906101000a900473ffffffffffffffffffffffffffffffffffffffff169050600073ffffffffffffffffffffffffffffffffffffffff168173ffffffffffffffffffffffffffffffffffffffff161415610e81576040517f08c379a0000000000000000000000000000000000000000000000000000000008152600401610e7890613120565b60405180910390fd5b80915050919050565b600a818051602081018201805184825260208301602085012081835280955050505050506000915090508060000160009054906101000a900473ffffffffffffffffffffffffffffffffffffffff16908060010160009054906101000a900473ffffffffffffffffffffffffffffffffffffffff16905082565b60008073ffffffffffffffffffffffffffffffffffffffff168273ffffffffffffffffffffffffffffffffffffffff161415610f75576040517f08c379a0000000000000000000000000000000000000000000000000000000008152600401610f6c906131b2565b60405180910390fd5b600360008373ffffffffffffffffffffffffffffffffffffffff1673ffffffffffffffffffffffffffffffffffffffff168152602001908152602001600020549050919050565b600881604051610fcc9190612dc4565b908152602001604051809103902060009054906101000a900460ff1615611028576040517f08c379a000000000000000000000000000000000000000000000000000000000815260040161101f9061321e565b60405180910390fd5b6007819080600181540180825580915050600190039060005260206000200160009091909190915090805190602001906110639291906121ec565b5060006001600780549050611078919061323e565b90506110843382611c22565b3373ffffffffffffffffffffffffffffffffffffffff166110a482610dd8565b73ffffffffffffffffffffffffffffffffffffffff16146110fa576040517f08c379a00000000000000000000000000000000000000000000000000000000081526004016110f1906132be565b60405180910390fd5b60405180604001604052808481526020013373ffffffffffffffffffffffffffffffffffffffff16815250600960008381526020019081526020016000206000820151816000015560208201518160010160006101000a81548173ffffffffffffffffffffffffffffffffffffffff021916908373ffffffffffffffffffffffffffffffffffffffff160217905550905050600160088360405161119e9190612dc4565b908152602001604051809103902060006101000a81548160ff021916908315150217905550505050565b6060600180546111d790612ba0565b80601f016020809104026020016040519081016040528092919081815260200182805461120390612ba0565b80156112505780601f1061122557610100808354040283529160200191611250565b820191906000526020600020905b81548152906001019060200180831161123357829003601f168201915b5050505050905090565b611262611827565b73ffffffffffffffffffffffffffffffffffffffff168273ffffffffffffffffffffffffffffffffffffffff1614156112d0576040517f08c379a00000000000000000000000000000000000000000000000000000000081526004016112c79061332a565b60405180910390fd5b80600560006112dd611827565b73ffffffffffffffffffffffffffffffffffffffff1673ffffffffffffffffffffffffffffffffffffffff16815260200190815260200160002060008473ffffffffffffffffffffffffffffffffffffffff1673ffffffffffffffffffffffffffffffffffffffff16815260200190815260200160002060006101000a81548160ff0219169083151502179055508173ffffffffffffffffffffffffffffffffffffffff1661138a611827565b73ffffffffffffffffffffffffffffffffffffffff167f17307eab39ab6107e8899845ad3d59bd9653f200f220920489ca2b5937696c31836040516113cf9190612343565b60405180910390a35050565b600781815481106113eb57600080fd5b90600052602060002001600091509050805461140690612ba0565b80601f016020809104026020016040519081016040528092919081815260200182805461143290612ba0565b801561147f5780601f106114545761010080835404028352916020019161147f565b820191906000526020600020905b81548152906001019060200180831161146257829003601f168201915b505050505081565b61149184836118e8565b6114d0576040517f08c379a00000000000000000000000000000000000000000000000000000000081526004016114c790612ef4565b60405180910390fd5b6114dc84848484611c40565b50505050565b6000806000600a846040516114f79190612dc4565b90815260200160405180910390206040518060400160405290816000820160009054906101000a900473ffffffffffffffffffffffffffffffffffffffff1673ffffffffffffffffffffffffffffffffffffffff1673ffffffffffffffffffffffffffffffffffffffff1681526020016001820160009054906101000a900473ffffffffffffffffffffffffffffffffffffffff1673ffffffffffffffffffffffffffffffffffffffff1673ffffffffffffffffffffffffffffffffffffffff16815250509050806000015192508060200151915050915091565b60606115dd826117bb565b61161c576040517f08c379a0000000000000000000000000000000000000000000000000000000008152600401611613906133bc565b60405180910390fd5b6000611626611c9c565b905060008151116116465760405180602001604052806000815250611671565b8061165084611cb3565b6040516020016116619291906133dc565b6040516020818303038152906040525b915050919050565b60096020528060005260406000206000915090508060000154908060010160009054906101000a900473ffffffffffffffffffffffffffffffffffffffff16905082565b6000600560008473ffffffffffffffffffffffffffffffffffffffff1673ffffffffffffffffffffffffffffffffffffffff16815260200190815260200160002060008373ffffffffffffffffffffffffffffffffffffffff1673ffffffffffffffffffffffffffffffffffffffff16815260200190815260200160002060009054906101000a900460ff16905092915050565b60007f01ffc9a7000000000000000000000000000000000000000000000000000000007bffffffffffffffffffffffffffffffffffffffffffffffffffffffff1916827bffffffffffffffffffffffffffffffffffffffffffffffffffffffff1916149050919050565b60008073ffffffffffffffffffffffffffffffffffffffff166002600084815260200190815260200160002060009054906101000a900473ffffffffffffffffffffffffffffffffffffffff1673ffffffffffffffffffffffffffffffffffffffff1614159050919050565b600033905090565b816004600083815260200190815260200160002060006101000a81548173ffffffffffffffffffffffffffffffffffffffff021916908373ffffffffffffffffffffffffffffffffffffffff160217905550808273ffffffffffffffffffffffffffffffffffffffff166118a283610dd8565b73ffffffffffffffffffffffffffffffffffffffff167f8c5be1e5ebec7d5bd14f71427d1e84f3dd0314c0f7b2291e5b200ac8c7c3b92560405160405180910390a45050565b60006118f3826117bb565b611932576040517f08c379a000000000000000000000000000000000000000000000000000000000815260040161192990613472565b60405180910390fd5b600061193d83610dd8565b90508073ffffffffffffffffffffffffffffffffffffffff168473ffffffffffffffffffffffffffffffffffffffff1614806119ac57508373ffffffffffffffffffffffffffffffffffffffff16611994846106eb565b73ffffffffffffffffffffffffffffffffffffffff16145b806119bd57506119bc81856116bd565b5b91505092915050565b8273ffffffffffffffffffffffffffffffffffffffff166119e682610dd8565b73ffffffffffffffffffffffffffffffffffffffff1614611a3c576040517f08c379a0000000000000000000000000000000000000000000000000000000008152600401611a3390613504565b60405180910390fd5b600073ffffffffffffffffffffffffffffffffffffffff168273ffffffffffffffffffffffffffffffffffffffff161415611aac576040517f08c379a0000000000000000000000000000000000000000000000000000000008152600401611aa390613596565b60405180910390fd5b611ab7838383611e14565b611ac260008261182f565b6001600360008573ffffffffffffffffffffffffffffffffffffffff1673ffffffffffffffffffffffffffffffffffffffff1681526020019081526020016000206000828254611b12919061323e565b925050819055506001600360008473ffffffffffffffffffffffffffffffffffffffff1673ffffffffffffffffffffffffffffffffffffffff1681526020019081526020016000206000828254611b699190613058565b92505081905550816002600083815260200190815260200160002060006101000a81548173ffffffffffffffffffffffffffffffffffffffff021916908373ffffffffffffffffffffffffffffffffffffffff160217905550808273ffffffffffffffffffffffffffffffffffffffff168473ffffffffffffffffffffffffffffffffffffffff167fddf252ad1be2c89b69c2b068fc378daa952ba7f163c4a11628f55a4df523b3ef60405160405180910390a4505050565b611c3c828260405180602001604052806000815250611e19565b5050565b611c4b8484846119c6565b611c5784848484611e74565b611c96576040517f08c379a0000000000000000000000000000000000000000000000000000000008152600401611c8d90613628565b60405180910390fd5b50505050565b606060405180602001604052806000815250905090565b60606000821415611cfb576040518060400160405280600181526020017f30000000000000000000000000000000000000000000000000000000000000008152509050611e0f565b600082905060005b60008214611d2d578080611d1690612e39565b915050600a82611d269190613677565b9150611d03565b60008167ffffffffffffffff811115611d4957611d48612549565b5b6040519080825280601f01601f191660200182016040528015611d7b5781602001600182028036833780820191505090505b5090505b60008514611e0857600182611d94919061323e565b9150600a85611da391906136a8565b6030611daf9190613058565b60f81b818381518110611dc557611dc4612ddb565b5b60200101907effffffffffffffffffffffffffffffffffffffffffffffffffffffffffffff1916908160001a905350600a85611e019190613677565b9450611d7f565b8093505050505b919050565b505050565b611e23838361200b565b611e306000848484611e74565b611e6f576040517f08c379a0000000000000000000000000000000000000000000000000000000008152600401611e6690613628565b60405180910390fd5b505050565b6000611e958473ffffffffffffffffffffffffffffffffffffffff166121d9565b15611ffe578373ffffffffffffffffffffffffffffffffffffffff1663150b7a02611ebe611827565b8786866040518563ffffffff1660e01b8152600401611ee0949392919061372e565b602060405180830381600087803b158015611efa57600080fd5b505af1925050508015611f2b57506040513d601f19601f82011682018060405250810190611f28919061378f565b60015b611fae573d8060008114611f5b576040519150601f19603f3d011682016040523d82523d6000602084013e611f60565b606091505b50600081511415611fa6576040517f08c379a0000000000000000000000000000000000000000000000000000000008152600401611f9d90613628565b60405180910390fd5b805181602001fd5b63150b7a0260e01b7bffffffffffffffffffffffffffffffffffffffffffffffffffffffff1916817bffffffffffffffffffffffffffffffffffffffffffffffffffffffff191614915050612003565b600190505b949350505050565b600073ffffffffffffffffffffffffffffffffffffffff168273ffffffffffffffffffffffffffffffffffffffff16141561207b576040517f08c379a000000000000000000000000000000000000000000000000000000000815260040161207290613808565b60405180910390fd5b612084816117bb565b156120c4576040517f08c379a00000000000000000000000000000000000000000000000000000000081526004016120bb90613874565b60405180910390fd5b6120d060008383611e14565b6001600360008473ffffffffffffffffffffffffffffffffffffffff1673ffffffffffffffffffffffffffffffffffffffff16815260200190815260200160002060008282546121209190613058565b92505081905550816002600083815260200190815260200160002060006101000a81548173ffffffffffffffffffffffffffffffffffffffff021916908373ffffffffffffffffffffffffffffffffffffffff160217905550808273ffffffffffffffffffffffffffffffffffffffff16600073ffffffffffffffffffffffffffffffffffffffff167fddf252ad1be2c89b69c2b068fc378daa952ba7f163c4a11628f55a4df523b3ef60405160405180910390a45050565b600080823b905060008111915050919050565b8280546121f890612ba0565b90600052602060002090601f01602090048101928261221a5760008555612261565b82601f1061223357805160ff1916838001178555612261565b82800160010185558215612261579182015b82811115612260578251825591602001919060010190612245565b5b50905061226e9190612272565b5090565b5b8082111561228b576000816000905550600101612273565b5090565b6000604051905090565b600080fd5b600080fd5b60007fffffffff0000000000000000000000000000000000000000000000000000000082169050919050565b6122d8816122a3565b81146122e357600080fd5b50565b6000813590506122f5816122cf565b92915050565b60006020828403121561231157612310612299565b5b600061231f848285016122e6565b91505092915050565b60008115159050919050565b61233d81612328565b82525050565b60006020820190506123586000830184612334565b92915050565b600081519050919050565b600082825260208201905092915050565b60005b8381101561239857808201518184015260208101905061237d565b838111156123a7576000848401525b50505050565b6000601f19601f8301169050919050565b60006123c98261235e565b6123d38185612369565b93506123e381856020860161237a565b6123ec816123ad565b840191505092915050565b6000602082019050818103600083015261241181846123be565b905092915050565b6000819050919050565b61242c81612419565b811461243757600080fd5b50565b60008135905061244981612423565b92915050565b60006020828403121561246557612464612299565b5b60006124738482850161243a565b91505092915050565b600073ffffffffffffffffffffffffffffffffffffffff82169050919050565b60006124a78261247c565b9050919050565b6124b78161249c565b82525050565b60006020820190506124d260008301846124ae565b92915050565b6124e18161249c565b81146124ec57600080fd5b50565b6000813590506124fe816124d8565b92915050565b6000806040838503121561251b5761251a612299565b5b6000612529858286016124ef565b925050602061253a8582860161243a565b9150509250929050565b600080fd5b7f4e487b7100000000000000000000000000000000000000000000000000000000600052604160045260246000fd5b612581826123ad565b810181811067ffffffffffffffff821117156125a05761259f612549565b5b80604052505050565b60006125b361228f565b90506125bf8282612578565b919050565b600067ffffffffffffffff8211156125df576125de612549565b5b602082029050602081019050919050565b600080fd5b600080fd5b600067ffffffffffffffff82111561261557612614612549565b5b61261e826123ad565b9050602081019050919050565b82818337600083830152505050565b600061264d612648846125fa565b6125a9565b905082815260208101848484011115612669576126686125f5565b5b61267484828561262b565b509392505050565b600082601f83011261269157612690612544565b5b81356126a184826020860161263a565b91505092915050565b60006126bd6126b8846125c4565b6125a9565b905080838252602082019050602084028301858111156126e0576126df6125f0565b5b835b8181101561272757803567ffffffffffffffff81111561270557612704612544565b5b808601612712898261267c565b855260208501945050506020810190506126e2565b5050509392505050565b600082601f83011261274657612745612544565b5b81356127568482602086016126aa565b91505092915050565b6000806040838503121561277657612775612299565b5b600083013567ffffffffffffffff8111156127945761279361229e565b5b6127a085828601612731565b925050602083013567ffffffffffffffff8111156127c1576127c061229e565b5b6127cd8582860161267c565b9150509250929050565b6127e081612419565b82525050565b60006040820190506127fb60008301856127d7565b6128086020830184612334565b9392505050565b60008060006060848603121561282857612827612299565b5b6000612836868287016124ef565b9350506020612847868287016124ef565b92505060406128588682870161243a565b9150509250925092565b60006020828403121561287857612877612299565b5b6000612886848285016124ef565b91505092915050565b60006020820190506128a460008301846127d7565b92915050565b6000602082840312156128c0576128bf612299565b5b600082013567ffffffffffffffff8111156128de576128dd61229e565b5b6128ea8482850161267c565b91505092915050565b600060408201905061290860008301856124ae565b61291560208301846124ae565b9392505050565b6000806040838503121561293357612932612299565b5b60006129418582860161243a565b925050602083013567ffffffffffffffff8111156129625761296161229e565b5b61296e8582860161267c565b9150509250929050565b61298181612328565b811461298c57600080fd5b50565b60008135905061299e81612978565b92915050565b600080604083850312156129bb576129ba612299565b5b60006129c9858286016124ef565b92505060206129da8582860161298f565b9150509250929050565b600067ffffffffffffffff8211156129ff576129fe612549565b5b612a08826123ad565b9050602081019050919050565b6000612a28612a23846129e4565b6125a9565b905082815260208101848484011115612a4457612a436125f5565b5b612a4f84828561262b565b509392505050565b600082601f830112612a6c57612a6b612544565b5b8135612a7c848260208601612a15565b91505092915050565b60008060008060808587031215612a9f57612a9e612299565b5b6000612aad878288016124ef565b9450506020612abe878288016124ef565b9350506040612acf8782880161243a565b925050606085013567ffffffffffffffff811115612af057612aef61229e565b5b612afc87828801612a57565b91505092959194509250565b6000604082019050612b1d60008301856127d7565b612b2a60208301846124ae565b9392505050565b60008060408385031215612b4857612b47612299565b5b6000612b56858286016124ef565b9250506020612b67858286016124ef565b9150509250929050565b7f4e487b7100000000000000000000000000000000000000000000000000000000600052602260045260246000fd5b60006002820490506001821680612bb857607f821691505b60208210811415612bcc57612bcb612b71565b5b50919050565b7f4552433732313a20617070726f76656420717565727920666f72206e6f6e657860008201527f697374656e7420746f6b656e0000000000000000000000000000000000000000602082015250565b6000612c2e602c83612369565b9150612c3982612bd2565b604082019050919050565b60006020820190508181036000830152612c5d81612c21565b9050919050565b7f4552433732313a20617070726f76616c20746f2063757272656e74206f776e6560008201527f7200000000000000000000000000000000000000000000000000000000000000602082015250565b6000612cc0602183612369565b9150612ccb82612c64565b604082019050919050565b60006020820190508181036000830152612cef81612cb3565b9050919050565b7f4552433732313a20617070726f76652063616c6c6572206973206e6f74206f7760008201527f6e6572206e6f7220617070726f76656420666f7220616c6c0000000000000000602082015250565b6000612d52603883612369565b9150612d5d82612cf6565b604082019050919050565b60006020820190508181036000830152612d8181612d45565b9050919050565b600081905092915050565b6000612d9e8261235e565b612da88185612d88565b9350612db881856020860161237a565b80840191505092915050565b6000612dd08284612d93565b915081905092915050565b7f4e487b7100000000000000000000000000000000000000000000000000000000600052603260045260246000fd5b7f4e487b7100000000000000000000000000000000000000000000000000000000600052601160045260246000fd5b6000612e4482612419565b91507fffffffffffffffffffffffffffffffffffffffffffffffffffffffffffffffff821415612e7757612e76612e0a565b5b600182019050919050565b7f4552433732313a207472616e736665722063616c6c6572206973206e6f74206f60008201527f776e6572206e6f7220617070726f766564000000000000000000000000000000602082015250565b6000612ede603183612369565b9150612ee982612e82565b604082019050919050565b60006020820190508181036000830152612f0d81612ed1565b9050919050565b7f622064612066616c736f20792066616c6c610000000000000000000000000000600082015250565b6000612f4a601283612369565b9150612f5582612f14565b602082019050919050565b60006020820190508181036000830152612f7981612f3d565b9050919050565b7f796f752063616e27742062757920697420696620796f75206f776e2069740000600082015250565b6000612fb6601e83612369565b9150612fc182612f80565b602082019050919050565b60006020820190508181036000830152612fe581612fa9565b9050919050565b7f66756e64732073656e742077726f6e6700000000000000000000000000000000600082015250565b6000613022601083612369565b915061302d82612fec565b602082019050919050565b6000602082019050818103600083015261305181613015565b9050919050565b600061306382612419565b915061306e83612419565b9250827fffffffffffffffffffffffffffffffffffffffffffffffffffffffffffffffff038211156130a3576130a2612e0a565b5b828201905092915050565b7f4552433732313a206f776e657220717565727920666f72206e6f6e657869737460008201527f656e7420746f6b656e0000000000000000000000000000000000000000000000602082015250565b600061310a602983612369565b9150613115826130ae565b604082019050919050565b60006020820190508181036000830152613139816130fd565b9050919050565b7f4552433732313a2062616c616e636520717565727920666f7220746865207a6560008201527f726f206164647265737300000000000000000000000000000000000000000000602082015250565b600061319c602a83612369565b91506131a782613140565b604082019050919050565b600060208201905081810360008301526131cb8161318f565b9050919050565b7f656c2068617368207961206573746120656e20656c2061727261790000000000600082015250565b6000613208601b83612369565b9150613213826131d2565b602082019050919050565b60006020820190508181036000830152613237816131fb565b9050919050565b600061324982612419565b915061325483612419565b92508282101561326757613266612e0a565b5b828203905092915050565b7f63616c6c6572206d757374206f776e20676976656e20746f6b656e0000000000600082015250565b60006132a8601b83612369565b91506132b382613272565b602082019050919050565b600060208201905081810360008301526132d78161329b565b9050919050565b7f4552433732313a20617070726f766520746f2063616c6c657200000000000000600082015250565b6000613314601983612369565b915061331f826132de565b602082019050919050565b6000602082019050818103600083015261334381613307565b9050919050565b7f4552433732314d657461646174613a2055524920717565727920666f72206e6f60008201527f6e6578697374656e7420746f6b656e0000000000000000000000000000000000602082015250565b60006133a6602f83612369565b91506133b18261334a565b604082019050919050565b600060208201905081810360008301526133d581613399565b9050919050565b60006133e88285612d93565b91506133f48284612d93565b91508190509392505050565b7f4552433732313a206f70657261746f7220717565727920666f72206e6f6e657860008201527f697374656e7420746f6b656e0000000000000000000000000000000000000000602082015250565b600061345c602c83612369565b915061346782613400565b604082019050919050565b6000602082019050818103600083015261348b8161344f565b9050919050565b7f4552433732313a207472616e73666572206f6620746f6b656e2074686174206960008201527f73206e6f74206f776e0000000000000000000000000000000000000000000000602082015250565b60006134ee602983612369565b91506134f982613492565b604082019050919050565b6000602082019050818103600083015261351d816134e1565b9050919050565b7f4552433732313a207472616e7366657220746f20746865207a65726f2061646460008201527f7265737300000000000000000000000000000000000000000000000000000000602082015250565b6000613580602483612369565b915061358b82613524565b604082019050919050565b600060208201905081810360008301526135af81613573565b9050919050565b7f4552433732313a207472616e7366657220746f206e6f6e20455243373231526560008201527f63656976657220696d706c656d656e7465720000000000000000000000000000602082015250565b6000613612603283612369565b915061361d826135b6565b604082019050919050565b6000602082019050818103600083015261364181613605565b9050919050565b7f4e487b7100000000000000000000000000000000000000000000000000000000600052601260045260246000fd5b600061368282612419565b915061368d83612419565b92508261369d5761369c613648565b5b828204905092915050565b60006136b382612419565b91506136be83612419565b9250826136ce576136cd613648565b5b828206905092915050565b600081519050919050565b600082825260208201905092915050565b6000613700826136d9565b61370a81856136e4565b935061371a81856020860161237a565b613723816123ad565b840191505092915050565b600060808201905061374360008301876124ae565b61375060208301866124ae565b61375d60408301856127d7565b818103606083015261376f81846136f5565b905095945050505050565b600081519050613789816122cf565b92915050565b6000602082840312156137a5576137a4612299565b5b60006137b38482850161377a565b91505092915050565b7f4552433732313a206d696e7420746f20746865207a65726f2061646472657373600082015250565b60006137f2602083612369565b91506137fd826137bc565b602082019050919050565b60006020820190508181036000830152613821816137e5565b9050919050565b7f4552433732313a20746f6b656e20616c7265616479206d696e74656400000000600082015250565b600061385e601c83612369565b915061386982613828565b602082019050919050565b6000602082019050818103600083015261388d81613851565b905091905056fea2646970667358221220b81169899b8f528b97262197f6224cc02592ef8266b834d17ff0747a8406694f64736f6c63430008090033",
  "immutableReferences": {},
  "source": "//SPDX-License-Identifier: UNLICENSED\n\npragma solidity ^0.8.0;\n\nimport \"./ERC721.sol\";\n\ncontract Photo is ERC721 {\n\n    mapping(address => uint256) public balances;\n\n    string[] public photos;\n    mapping(string => bool) _photoExists;\n\n    struct Listing {\n      uint256 price;\n      address seller;\n    }\n    mapping(uint256 => Listing) public listings;\n\n    struct User{\n      address seller;\n      address buyer;\n    }\n    mapping(string => User) public users;\n\n\n    constructor() ERC721(\"Photo\", \"PHOTO\") {}\n\n    function mint(uint256 price, string memory _photo) public {\n      require(!_photoExists[_photo], \"el hash ya esta en el array\");\n      photos.push(_photo);\n      uint tokenID = photos.length -1;                        \n      _safeMint(msg.sender, tokenID);    \n      require(ownerOf(tokenID) == msg.sender, \"caller must own given token\");\n      listings[tokenID] = Listing(price, msg.sender); \n      _photoExists[_photo] = true;\n    }\n\n    function indexOf(string[] memory arr, string memory searchFor) public pure returns (uint256, bool) {\n      for (uint256 i = 0; i < arr.length; i++) {\n        if ((keccak256(abi.encodePacked(arr[i])) == keccak256(abi.encodePacked(searchFor)))) {\n          return (i, true);\n        }\n      }\n      return (0, false);\n    }\n\n    function purchase(string memory _photo) public payable {  \n      (uint256 a, bool b) = indexOf(photos, _photo);\n      require(b, \"b da falso y falla\");\n      uint256 tokenID = a;\n\n      Listing memory item = listings[tokenID];\n      require(ownerOf(tokenID) != msg.sender, \"you can't buy it if you own it\");  \n      require(msg.value == item.price, \"funds sent wrong\");    \n      balances[item.seller] += msg.value;                   \n\n      safeTransferFrom(item.seller, msg.sender, tokenID);\n      users[_photo] = User(item.seller, msg.sender);\n\n      address payable Seller = payable(item.seller);\n      require(Seller.send(msg.value));\n    }\n\n    function getUsers(string memory _photo) public view returns (address seller, address buyer) {\n      User memory item = users[_photo];\n      seller=item.seller;\n      buyer=item.buyer;     \n    }\n}",
  "sourcePath": "/Users/lucia/Desktop/frontend-nft/dapp/src/contracts/Photo.sol",
  "compiler": {
    "name": "solc",
    "version": "0.8.9+commit.e5eed63a.Emscripten.clang"
  },
  "schemaVersion": "3.4.7",
  "updatedAt": "2022-05-08T16:43:08.245Z",
  "networkType": "ethereum",
  "devdoc": {
    "kind": "dev",
    "methods": {},
    "version": 1
  },
  "userdoc": {
    "kind": "user",
    "methods": {},
    "version": 1
  }
}