{
  "contractName": "Photo",
  "abi": [
    {
      "inputs": [],
      "stateMutability": "nonpayable",
      "type": "constructor"
    },
    {
      "anonymous": false,
      "inputs": [
        {
          "indexed": true,
          "internalType": "address",
          "name": "owner",
          "type": "address"
        },
        {
          "indexed": true,
          "internalType": "address",
          "name": "approved",
          "type": "address"
        },
        {
          "indexed": true,
          "internalType": "uint256",
          "name": "tokenId",
          "type": "uint256"
        }
      ],
      "name": "Approval",
      "type": "event"
    },
    {
      "anonymous": false,
      "inputs": [
        {
          "indexed": true,
          "internalType": "address",
          "name": "owner",
          "type": "address"
        },
        {
          "indexed": true,
          "internalType": "address",
          "name": "operator",
          "type": "address"
        },
        {
          "indexed": false,
          "internalType": "bool",
          "name": "approved",
          "type": "bool"
        }
      ],
      "name": "ApprovalForAll",
      "type": "event"
    },
    {
      "anonymous": false,
      "inputs": [
        {
          "indexed": true,
          "internalType": "address",
          "name": "from",
          "type": "address"
        },
        {
          "indexed": true,
          "internalType": "address",
          "name": "to",
          "type": "address"
        },
        {
          "indexed": true,
          "internalType": "uint256",
          "name": "tokenId",
          "type": "uint256"
        }
      ],
      "name": "Transfer",
      "type": "event"
    },
    {
      "inputs": [
        {
          "internalType": "address",
          "name": "to",
          "type": "address"
        },
        {
          "internalType": "uint256",
          "name": "tokenId",
          "type": "uint256"
        }
      ],
      "name": "approve",
      "outputs": [],
      "stateMutability": "nonpayable",
      "type": "function"
    },
    {
      "inputs": [
        {
          "internalType": "address",
          "name": "owner",
          "type": "address"
        }
      ],
      "name": "balanceOf",
      "outputs": [
        {
          "internalType": "uint256",
          "name": "",
          "type": "uint256"
        }
      ],
      "stateMutability": "view",
      "type": "function",
      "constant": true
    },
    {
      "inputs": [
        {
          "internalType": "address",
          "name": "",
          "type": "address"
        }
      ],
      "name": "balances",
      "outputs": [
        {
          "internalType": "uint256",
          "name": "",
          "type": "uint256"
        }
      ],
      "stateMutability": "view",
      "type": "function",
      "constant": true
    },
    {
      "inputs": [
        {
          "internalType": "uint256",
          "name": "tokenId",
          "type": "uint256"
        }
      ],
      "name": "getApproved",
      "outputs": [
        {
          "internalType": "address",
          "name": "",
          "type": "address"
        }
      ],
      "stateMutability": "view",
      "type": "function",
      "constant": true
    },
    {
      "inputs": [
        {
          "internalType": "address",
          "name": "owner",
          "type": "address"
        },
        {
          "internalType": "address",
          "name": "operator",
          "type": "address"
        }
      ],
      "name": "isApprovedForAll",
      "outputs": [
        {
          "internalType": "bool",
          "name": "",
          "type": "bool"
        }
      ],
      "stateMutability": "view",
      "type": "function",
      "constant": true
    },
    {
      "inputs": [
        {
          "internalType": "uint256",
          "name": "",
          "type": "uint256"
        }
      ],
      "name": "listings",
      "outputs": [
        {
          "internalType": "uint256",
          "name": "price",
          "type": "uint256"
        },
        {
          "internalType": "address",
          "name": "seller",
          "type": "address"
        }
      ],
      "stateMutability": "view",
      "type": "function",
      "constant": true
    },
    {
      "inputs": [],
      "name": "name",
      "outputs": [
        {
          "internalType": "string",
          "name": "",
          "type": "string"
        }
      ],
      "stateMutability": "view",
      "type": "function",
      "constant": true
    },
    {
      "inputs": [
        {
          "internalType": "uint256",
          "name": "tokenId",
          "type": "uint256"
        }
      ],
      "name": "ownerOf",
      "outputs": [
        {
          "internalType": "address",
          "name": "",
          "type": "address"
        }
      ],
      "stateMutability": "view",
      "type": "function",
      "constant": true
    },
    {
      "inputs": [
        {
          "internalType": "uint256",
          "name": "",
          "type": "uint256"
        }
      ],
      "name": "photos",
      "outputs": [
        {
          "internalType": "string",
          "name": "",
          "type": "string"
        }
      ],
      "stateMutability": "view",
      "type": "function",
      "constant": true
    },
    {
      "inputs": [
        {
          "internalType": "address",
          "name": "from",
          "type": "address"
        },
        {
          "internalType": "address",
          "name": "to",
          "type": "address"
        },
        {
          "internalType": "uint256",
          "name": "tokenId",
          "type": "uint256"
        }
      ],
      "name": "safeTransferFrom",
      "outputs": [],
      "stateMutability": "nonpayable",
      "type": "function"
    },
    {
      "inputs": [
        {
          "internalType": "address",
          "name": "from",
          "type": "address"
        },
        {
          "internalType": "address",
          "name": "to",
          "type": "address"
        },
        {
          "internalType": "uint256",
          "name": "tokenId",
          "type": "uint256"
        },
        {
          "internalType": "bytes",
          "name": "_data",
          "type": "bytes"
        }
      ],
      "name": "safeTransferFrom",
      "outputs": [],
      "stateMutability": "nonpayable",
      "type": "function"
    },
    {
      "inputs": [
        {
          "internalType": "address",
          "name": "operator",
          "type": "address"
        },
        {
          "internalType": "bool",
          "name": "approved",
          "type": "bool"
        }
      ],
      "name": "setApprovalForAll",
      "outputs": [],
      "stateMutability": "nonpayable",
      "type": "function"
    },
    {
      "inputs": [
        {
          "internalType": "bytes4",
          "name": "interfaceId",
          "type": "bytes4"
        }
      ],
      "name": "supportsInterface",
      "outputs": [
        {
          "internalType": "bool",
          "name": "",
          "type": "bool"
        }
      ],
      "stateMutability": "view",
      "type": "function",
      "constant": true
    },
    {
      "inputs": [],
      "name": "symbol",
      "outputs": [
        {
          "internalType": "string",
          "name": "",
          "type": "string"
        }
      ],
      "stateMutability": "view",
      "type": "function",
      "constant": true
    },
    {
      "inputs": [
        {
          "internalType": "uint256",
          "name": "tokenId",
          "type": "uint256"
        }
      ],
      "name": "tokenURI",
      "outputs": [
        {
          "internalType": "string",
          "name": "",
          "type": "string"
        }
      ],
      "stateMutability": "view",
      "type": "function",
      "constant": true
    },
    {
      "inputs": [
        {
          "internalType": "address",
          "name": "from",
          "type": "address"
        },
        {
          "internalType": "address",
          "name": "to",
          "type": "address"
        },
        {
          "internalType": "uint256",
          "name": "tokenId",
          "type": "uint256"
        }
      ],
      "name": "transferFrom",
      "outputs": [],
      "stateMutability": "nonpayable",
      "type": "function"
    },
    {
      "inputs": [
        {
          "internalType": "uint256",
          "name": "price",
          "type": "uint256"
        },
        {
          "internalType": "string",
          "name": "_photo",
          "type": "string"
        }
      ],
      "name": "mint",
      "outputs": [],
      "stateMutability": "nonpayable",
      "type": "function"
    },
    {
      "inputs": [
        {
          "internalType": "string[]",
          "name": "arr",
          "type": "string[]"
        },
        {
          "internalType": "string",
          "name": "searchFor",
          "type": "string"
        }
      ],
      "name": "indexOf",
      "outputs": [
        {
          "internalType": "uint256",
          "name": "",
          "type": "uint256"
        },
        {
          "internalType": "bool",
          "name": "",
          "type": "bool"
        }
      ],
      "stateMutability": "pure",
      "type": "function",
      "constant": true
    },
    {
      "inputs": [
        {
          "internalType": "string",
          "name": "_photo",
          "type": "string"
        }
      ],
      "name": "purchase",
      "outputs": [],
      "stateMutability": "payable",
      "type": "function",
      "payable": true
    }
  ],
  "bytecode": "0x60806040523480156200001157600080fd5b506040518060400160405280600581526020017f50686f746f0000000000000000000000000000000000000000000000000000008152506040518060400160405280600581526020017f50484f544f000000000000000000000000000000000000000000000000000000815250816000908051906020019062000096929190620000b8565b508060019080519060200190620000af929190620000b8565b505050620001cd565b828054620000c69062000197565b90600052602060002090601f016020900481019282620000ea576000855562000136565b82601f106200010557805160ff191683800117855562000136565b8280016001018555821562000136579182015b828111156200013557825182559160200191906001019062000118565b5b50905062000145919062000149565b5090565b5b80821115620001645760008160009055506001016200014a565b5090565b7f4e487b7100000000000000000000000000000000000000000000000000000000600052602260045260246000fd5b60006002820490506001821680620001b057607f821691505b60208210811415620001c757620001c662000168565b5b50919050565b61364780620001dd6000396000f3fe6080604052600436106101145760003560e01c80636352211e116100a0578063af2a5d6f11610064578063af2a5d6f146103c7578063b88d4fde14610404578063c87b56dd1461042d578063de74e57b1461046a578063e985e9c5146104a857610114565b80636352211e146102d057806370a082311461030d57806377097fc81461034a57806395d89b4114610373578063a22cb4651461039e57610114565b80631b4e5b94116100e75780631b4e5b94146101e757806323b872dd1461022557806327e235e31461024e57806342842e0e1461028b57806359f5e0ce146102b457610114565b806301ffc9a71461011957806306fdde0314610156578063081812fc14610181578063095ea7b3146101be575b600080fd5b34801561012557600080fd5b50610140600480360381019061013b91906120a1565b6104e5565b60405161014d91906120e9565b60405180910390f35b34801561016257600080fd5b5061016b6105c7565b604051610178919061219d565b60405180910390f35b34801561018d57600080fd5b506101a860048036038101906101a391906121f5565b610659565b6040516101b59190612263565b60405180910390f35b3480156101ca57600080fd5b506101e560048036038101906101e091906122aa565b6106de565b005b3480156101f357600080fd5b5061020e60048036038101906102099190612505565b6107f6565b60405161021c92919061258c565b60405180910390f35b34801561023157600080fd5b5061024c600480360381019061024791906125b5565b6108a3565b005b34801561025a57600080fd5b5061027560048036038101906102709190612608565b6108fc565b6040516102829190612635565b60405180910390f35b34801561029757600080fd5b506102b260048036038101906102ad91906125b5565b610914565b005b6102ce60048036038101906102c99190612650565b610934565b005b3480156102dc57600080fd5b506102f760048036038101906102f291906121f5565b610ce8565b6040516103049190612263565b60405180910390f35b34801561031957600080fd5b50610334600480360381019061032f9190612608565b610d9a565b6040516103419190612635565b60405180910390f35b34801561035657600080fd5b50610371600480360381019061036c9190612699565b610e52565b005b34801561037f57600080fd5b5061038861105e565b604051610395919061219d565b60405180910390f35b3480156103aa57600080fd5b506103c560048036038101906103c09190612721565b6110f0565b005b3480156103d357600080fd5b506103ee60048036038101906103e991906121f5565b611271565b6040516103fb919061219d565b60405180910390f35b34801561041057600080fd5b5061042b60048036038101906104269190612802565b61131d565b005b34801561043957600080fd5b50610454600480360381019061044f91906121f5565b611378565b604051610461919061219d565b60405180910390f35b34801561047657600080fd5b50610491600480360381019061048c91906121f5565b61141f565b60405161049f929190612885565b60405180910390f35b3480156104b457600080fd5b506104cf60048036038101906104ca91906128ae565b611463565b6040516104dc91906120e9565b60405180910390f35b60007f80ac58cd000000000000000000000000000000000000000000000000000000007bffffffffffffffffffffffffffffffffffffffffffffffffffffffff1916827bffffffffffffffffffffffffffffffffffffffffffffffffffffffff191614806105b057507f5b5e139f000000000000000000000000000000000000000000000000000000007bffffffffffffffffffffffffffffffffffffffffffffffffffffffff1916827bffffffffffffffffffffffffffffffffffffffffffffffffffffffff1916145b806105c057506105bf826114f7565b5b9050919050565b6060600080546105d69061291d565b80601f01602080910402602001604051908101604052809291908181526020018280546106029061291d565b801561064f5780601f106106245761010080835404028352916020019161064f565b820191906000526020600020905b81548152906001019060200180831161063257829003601f168201915b5050505050905090565b600061066482611561565b6106a3576040517f08c379a000000000000000000000000000000000000000000000000000000000815260040161069a906129c1565b60405180910390fd5b6004600083815260200190815260200160002060009054906101000a900473ffffffffffffffffffffffffffffffffffffffff169050919050565b60006106e982610ce8565b90508073ffffffffffffffffffffffffffffffffffffffff168373ffffffffffffffffffffffffffffffffffffffff16141561075a576040517f08c379a000000000000000000000000000000000000000000000000000000000815260040161075190612a53565b60405180910390fd5b8073ffffffffffffffffffffffffffffffffffffffff166107796115cd565b73ffffffffffffffffffffffffffffffffffffffff1614806107a857506107a7816107a26115cd565b611463565b5b6107e7576040517f08c379a00000000000000000000000000000000000000000000000000000000081526004016107de90612ae5565b60405180910390fd5b6107f183836115d5565b505050565b60008060005b845181101561089357836040516020016108169190612b41565b6040516020818303038152906040528051906020012085828151811061083f5761083e612b58565b5b60200260200101516040516020016108579190612b41565b60405160208183030381529060405280519060200120141561088057806001925092505061089c565b808061088b90612bb6565b9150506107fc565b50600080915091505b9250929050565b6108ad838261168e565b6108ec576040517f08c379a00000000000000000000000000000000000000000000000000000000081526004016108e390612c71565b60405180910390fd5b6108f783838361176c565b505050565b60096020528060005260406000206000915090505481565b61092f8383836040518060200160405280600081525061131d565b505050565b600080610a126006805480602002602001604051908101604052809291908181526020016000905b82821015610a0857838290600052602060002001805461097b9061291d565b80601f01602080910402602001604051908101604052809291908181526020018280546109a79061291d565b80156109f45780601f106109c9576101008083540402835291602001916109f4565b820191906000526020600020905b8154815290600101906020018083116109d757829003601f168201915b50505050508152602001906001019061095c565b50505050846107f6565b9150915080610a56576040517f08c379a0000000000000000000000000000000000000000000000000000000008152600401610a4d90612cdd565b60405180910390fd5b6000829050600060086000838152602001908152602001600020604051806040016040529081600082015481526020016001820160009054906101000a900473ffffffffffffffffffffffffffffffffffffffff1673ffffffffffffffffffffffffffffffffffffffff1673ffffffffffffffffffffffffffffffffffffffff168152505090503373ffffffffffffffffffffffffffffffffffffffff16610afd83610ce8565b73ffffffffffffffffffffffffffffffffffffffff161415610b54576040517f08c379a0000000000000000000000000000000000000000000000000000000008152600401610b4b90612d49565b60405180910390fd5b80600001513414610b9a576040517f08c379a0000000000000000000000000000000000000000000000000000000008152600401610b9190612db5565b60405180910390fd5b3460096000836020015173ffffffffffffffffffffffffffffffffffffffff1673ffffffffffffffffffffffffffffffffffffffff1681526020019081526020016000206000828254610bed9190612dd5565b92505081905550610c0381602001513384610914565b6040518060400160405280826000015181526020013373ffffffffffffffffffffffffffffffffffffffff16815250600860008481526020019081526020016000206000820151816000015560208201518160010160006101000a81548173ffffffffffffffffffffffffffffffffffffffff021916908373ffffffffffffffffffffffffffffffffffffffff1602179055509050506000816020015190508073ffffffffffffffffffffffffffffffffffffffff166108fc349081150290604051600060405180830381858888f19350505050610ce057600080fd5b505050505050565b6000806002600084815260200190815260200160002060009054906101000a900473ffffffffffffffffffffffffffffffffffffffff169050600073ffffffffffffffffffffffffffffffffffffffff168173ffffffffffffffffffffffffffffffffffffffff161415610d91576040517f08c379a0000000000000000000000000000000000000000000000000000000008152600401610d8890612e9d565b60405180910390fd5b80915050919050565b60008073ffffffffffffffffffffffffffffffffffffffff168273ffffffffffffffffffffffffffffffffffffffff161415610e0b576040517f08c379a0000000000000000000000000000000000000000000000000000000008152600401610e0290612f2f565b60405180910390fd5b600360008373ffffffffffffffffffffffffffffffffffffffff1673ffffffffffffffffffffffffffffffffffffffff168152602001908152602001600020549050919050565b600781604051610e629190612b41565b908152602001604051809103902060009054906101000a900460ff1615610ebe576040517f08c379a0000000000000000000000000000000000000000000000000000000008152600401610eb590612f9b565b60405180910390fd5b600681908060018154018082558091505060019003906000526020600020016000909190919091509080519060200190610ef9929190611f92565b5060006001600680549050610f0e9190612fbb565b9050610f1a33826119c8565b3373ffffffffffffffffffffffffffffffffffffffff16610f3a82610ce8565b73ffffffffffffffffffffffffffffffffffffffff1614610f90576040517f08c379a0000000000000000000000000000000000000000000000000000000008152600401610f879061303b565b60405180910390fd5b60405180604001604052808481526020013373ffffffffffffffffffffffffffffffffffffffff16815250600860008381526020019081526020016000206000820151816000015560208201518160010160006101000a81548173ffffffffffffffffffffffffffffffffffffffff021916908373ffffffffffffffffffffffffffffffffffffffff16021790555090505060016007836040516110349190612b41565b908152602001604051809103902060006101000a81548160ff021916908315150217905550505050565b60606001805461106d9061291d565b80601f01602080910402602001604051908101604052809291908181526020018280546110999061291d565b80156110e65780601f106110bb576101008083540402835291602001916110e6565b820191906000526020600020905b8154815290600101906020018083116110c957829003601f168201915b5050505050905090565b6110f86115cd565b73ffffffffffffffffffffffffffffffffffffffff168273ffffffffffffffffffffffffffffffffffffffff161415611166576040517f08c379a000000000000000000000000000000000000000000000000000000000815260040161115d906130a7565b60405180910390fd5b80600560006111736115cd565b73ffffffffffffffffffffffffffffffffffffffff1673ffffffffffffffffffffffffffffffffffffffff16815260200190815260200160002060008473ffffffffffffffffffffffffffffffffffffffff1673ffffffffffffffffffffffffffffffffffffffff16815260200190815260200160002060006101000a81548160ff0219169083151502179055508173ffffffffffffffffffffffffffffffffffffffff166112206115cd565b73ffffffffffffffffffffffffffffffffffffffff167f17307eab39ab6107e8899845ad3d59bd9653f200f220920489ca2b5937696c318360405161126591906120e9565b60405180910390a35050565b6006818154811061128157600080fd5b90600052602060002001600091509050805461129c9061291d565b80601f01602080910402602001604051908101604052809291908181526020018280546112c89061291d565b80156113155780601f106112ea57610100808354040283529160200191611315565b820191906000526020600020905b8154815290600101906020018083116112f857829003601f168201915b505050505081565b611327848361168e565b611366576040517f08c379a000000000000000000000000000000000000000000000000000000000815260040161135d90612c71565b60405180910390fd5b611372848484846119e6565b50505050565b606061138382611561565b6113c2576040517f08c379a00000000000000000000000000000000000000000000000000000000081526004016113b990613139565b60405180910390fd5b60006113cc611a42565b905060008151116113ec5760405180602001604052806000815250611417565b806113f684611a59565b604051602001611407929190613159565b6040516020818303038152906040525b915050919050565b60086020528060005260406000206000915090508060000154908060010160009054906101000a900473ffffffffffffffffffffffffffffffffffffffff16905082565b6000600560008473ffffffffffffffffffffffffffffffffffffffff1673ffffffffffffffffffffffffffffffffffffffff16815260200190815260200160002060008373ffffffffffffffffffffffffffffffffffffffff1673ffffffffffffffffffffffffffffffffffffffff16815260200190815260200160002060009054906101000a900460ff16905092915050565b60007f01ffc9a7000000000000000000000000000000000000000000000000000000007bffffffffffffffffffffffffffffffffffffffffffffffffffffffff1916827bffffffffffffffffffffffffffffffffffffffffffffffffffffffff1916149050919050565b60008073ffffffffffffffffffffffffffffffffffffffff166002600084815260200190815260200160002060009054906101000a900473ffffffffffffffffffffffffffffffffffffffff1673ffffffffffffffffffffffffffffffffffffffff1614159050919050565b600033905090565b816004600083815260200190815260200160002060006101000a81548173ffffffffffffffffffffffffffffffffffffffff021916908373ffffffffffffffffffffffffffffffffffffffff160217905550808273ffffffffffffffffffffffffffffffffffffffff1661164883610ce8565b73ffffffffffffffffffffffffffffffffffffffff167f8c5be1e5ebec7d5bd14f71427d1e84f3dd0314c0f7b2291e5b200ac8c7c3b92560405160405180910390a45050565b600061169982611561565b6116d8576040517f08c379a00000000000000000000000000000000000000000000000000000000081526004016116cf906131ef565b60405180910390fd5b60006116e383610ce8565b90508073ffffffffffffffffffffffffffffffffffffffff168473ffffffffffffffffffffffffffffffffffffffff16148061175257508373ffffffffffffffffffffffffffffffffffffffff1661173a84610659565b73ffffffffffffffffffffffffffffffffffffffff16145b8061176357506117628185611463565b5b91505092915050565b8273ffffffffffffffffffffffffffffffffffffffff1661178c82610ce8565b73ffffffffffffffffffffffffffffffffffffffff16146117e2576040517f08c379a00000000000000000000000000000000000000000000000000000000081526004016117d990613281565b60405180910390fd5b600073ffffffffffffffffffffffffffffffffffffffff168273ffffffffffffffffffffffffffffffffffffffff161415611852576040517f08c379a000000000000000000000000000000000000000000000000000000000815260040161184990613313565b60405180910390fd5b61185d838383611bba565b6118686000826115d5565b6001600360008573ffffffffffffffffffffffffffffffffffffffff1673ffffffffffffffffffffffffffffffffffffffff16815260200190815260200160002060008282546118b89190612fbb565b925050819055506001600360008473ffffffffffffffffffffffffffffffffffffffff1673ffffffffffffffffffffffffffffffffffffffff168152602001908152602001600020600082825461190f9190612dd5565b92505081905550816002600083815260200190815260200160002060006101000a81548173ffffffffffffffffffffffffffffffffffffffff021916908373ffffffffffffffffffffffffffffffffffffffff160217905550808273ffffffffffffffffffffffffffffffffffffffff168473ffffffffffffffffffffffffffffffffffffffff167fddf252ad1be2c89b69c2b068fc378daa952ba7f163c4a11628f55a4df523b3ef60405160405180910390a4505050565b6119e2828260405180602001604052806000815250611bbf565b5050565b6119f184848461176c565b6119fd84848484611c1a565b611a3c576040517f08c379a0000000000000000000000000000000000000000000000000000000008152600401611a33906133a5565b60405180910390fd5b50505050565b606060405180602001604052806000815250905090565b60606000821415611aa1576040518060400160405280600181526020017f30000000000000000000000000000000000000000000000000000000000000008152509050611bb5565b600082905060005b60008214611ad3578080611abc90612bb6565b915050600a82611acc91906133f4565b9150611aa9565b60008167ffffffffffffffff811115611aef57611aee6122ef565b5b6040519080825280601f01601f191660200182016040528015611b215781602001600182028036833780820191505090505b5090505b60008514611bae57600182611b3a9190612fbb565b9150600a85611b499190613425565b6030611b559190612dd5565b60f81b818381518110611b6b57611b6a612b58565b5b60200101907effffffffffffffffffffffffffffffffffffffffffffffffffffffffffffff1916908160001a905350600a85611ba791906133f4565b9450611b25565b8093505050505b919050565b505050565b611bc98383611db1565b611bd66000848484611c1a565b611c15576040517f08c379a0000000000000000000000000000000000000000000000000000000008152600401611c0c906133a5565b60405180910390fd5b505050565b6000611c3b8473ffffffffffffffffffffffffffffffffffffffff16611f7f565b15611da4578373ffffffffffffffffffffffffffffffffffffffff1663150b7a02611c646115cd565b8786866040518563ffffffff1660e01b8152600401611c8694939291906134ab565b602060405180830381600087803b158015611ca057600080fd5b505af1925050508015611cd157506040513d601f19601f82011682018060405250810190611cce919061350c565b60015b611d54573d8060008114611d01576040519150601f19603f3d011682016040523d82523d6000602084013e611d06565b606091505b50600081511415611d4c576040517f08c379a0000000000000000000000000000000000000000000000000000000008152600401611d43906133a5565b60405180910390fd5b805181602001fd5b63150b7a0260e01b7bffffffffffffffffffffffffffffffffffffffffffffffffffffffff1916817bffffffffffffffffffffffffffffffffffffffffffffffffffffffff191614915050611da9565b600190505b949350505050565b600073ffffffffffffffffffffffffffffffffffffffff168273ffffffffffffffffffffffffffffffffffffffff161415611e21576040517f08c379a0000000000000000000000000000000000000000000000000000000008152600401611e1890613585565b60405180910390fd5b611e2a81611561565b15611e6a576040517f08c379a0000000000000000000000000000000000000000000000000000000008152600401611e61906135f1565b60405180910390fd5b611e7660008383611bba565b6001600360008473ffffffffffffffffffffffffffffffffffffffff1673ffffffffffffffffffffffffffffffffffffffff1681526020019081526020016000206000828254611ec69190612dd5565b92505081905550816002600083815260200190815260200160002060006101000a81548173ffffffffffffffffffffffffffffffffffffffff021916908373ffffffffffffffffffffffffffffffffffffffff160217905550808273ffffffffffffffffffffffffffffffffffffffff16600073ffffffffffffffffffffffffffffffffffffffff167fddf252ad1be2c89b69c2b068fc378daa952ba7f163c4a11628f55a4df523b3ef60405160405180910390a45050565b600080823b905060008111915050919050565b828054611f9e9061291d565b90600052602060002090601f016020900481019282611fc05760008555612007565b82601f10611fd957805160ff1916838001178555612007565b82800160010185558215612007579182015b82811115612006578251825591602001919060010190611feb565b5b5090506120149190612018565b5090565b5b80821115612031576000816000905550600101612019565b5090565b6000604051905090565b600080fd5b600080fd5b60007fffffffff0000000000000000000000000000000000000000000000000000000082169050919050565b61207e81612049565b811461208957600080fd5b50565b60008135905061209b81612075565b92915050565b6000602082840312156120b7576120b661203f565b5b60006120c58482850161208c565b91505092915050565b60008115159050919050565b6120e3816120ce565b82525050565b60006020820190506120fe60008301846120da565b92915050565b600081519050919050565b600082825260208201905092915050565b60005b8381101561213e578082015181840152602081019050612123565b8381111561214d576000848401525b50505050565b6000601f19601f8301169050919050565b600061216f82612104565b612179818561210f565b9350612189818560208601612120565b61219281612153565b840191505092915050565b600060208201905081810360008301526121b78184612164565b905092915050565b6000819050919050565b6121d2816121bf565b81146121dd57600080fd5b50565b6000813590506121ef816121c9565b92915050565b60006020828403121561220b5761220a61203f565b5b6000612219848285016121e0565b91505092915050565b600073ffffffffffffffffffffffffffffffffffffffff82169050919050565b600061224d82612222565b9050919050565b61225d81612242565b82525050565b60006020820190506122786000830184612254565b92915050565b61228781612242565b811461229257600080fd5b50565b6000813590506122a48161227e565b92915050565b600080604083850312156122c1576122c061203f565b5b60006122cf85828601612295565b92505060206122e0858286016121e0565b9150509250929050565b600080fd5b7f4e487b7100000000000000000000000000000000000000000000000000000000600052604160045260246000fd5b61232782612153565b810181811067ffffffffffffffff82111715612346576123456122ef565b5b80604052505050565b6000612359612035565b9050612365828261231e565b919050565b600067ffffffffffffffff821115612385576123846122ef565b5b602082029050602081019050919050565b600080fd5b600080fd5b600067ffffffffffffffff8211156123bb576123ba6122ef565b5b6123c482612153565b9050602081019050919050565b82818337600083830152505050565b60006123f36123ee846123a0565b61234f565b90508281526020810184848401111561240f5761240e61239b565b5b61241a8482856123d1565b509392505050565b600082601f830112612437576124366122ea565b5b81356124478482602086016123e0565b91505092915050565b600061246361245e8461236a565b61234f565b9050808382526020820190506020840283018581111561248657612485612396565b5b835b818110156124cd57803567ffffffffffffffff8111156124ab576124aa6122ea565b5b8086016124b88982612422565b85526020850194505050602081019050612488565b5050509392505050565b600082601f8301126124ec576124eb6122ea565b5b81356124fc848260208601612450565b91505092915050565b6000806040838503121561251c5761251b61203f565b5b600083013567ffffffffffffffff81111561253a57612539612044565b5b612546858286016124d7565b925050602083013567ffffffffffffffff81111561256757612566612044565b5b61257385828601612422565b9150509250929050565b612586816121bf565b82525050565b60006040820190506125a1600083018561257d565b6125ae60208301846120da565b9392505050565b6000806000606084860312156125ce576125cd61203f565b5b60006125dc86828701612295565b93505060206125ed86828701612295565b92505060406125fe868287016121e0565b9150509250925092565b60006020828403121561261e5761261d61203f565b5b600061262c84828501612295565b91505092915050565b600060208201905061264a600083018461257d565b92915050565b6000602082840312156126665761266561203f565b5b600082013567ffffffffffffffff81111561268457612683612044565b5b61269084828501612422565b91505092915050565b600080604083850312156126b0576126af61203f565b5b60006126be858286016121e0565b925050602083013567ffffffffffffffff8111156126df576126de612044565b5b6126eb85828601612422565b9150509250929050565b6126fe816120ce565b811461270957600080fd5b50565b60008135905061271b816126f5565b92915050565b600080604083850312156127385761273761203f565b5b600061274685828601612295565b92505060206127578582860161270c565b9150509250929050565b600067ffffffffffffffff82111561277c5761277b6122ef565b5b61278582612153565b9050602081019050919050565b60006127a56127a084612761565b61234f565b9050828152602081018484840111156127c1576127c061239b565b5b6127cc8482856123d1565b509392505050565b600082601f8301126127e9576127e86122ea565b5b81356127f9848260208601612792565b91505092915050565b6000806000806080858703121561281c5761281b61203f565b5b600061282a87828801612295565b945050602061283b87828801612295565b935050604061284c878288016121e0565b925050606085013567ffffffffffffffff81111561286d5761286c612044565b5b612879878288016127d4565b91505092959194509250565b600060408201905061289a600083018561257d565b6128a76020830184612254565b9392505050565b600080604083850312156128c5576128c461203f565b5b60006128d385828601612295565b92505060206128e485828601612295565b9150509250929050565b7f4e487b7100000000000000000000000000000000000000000000000000000000600052602260045260246000fd5b6000600282049050600182168061293557607f821691505b60208210811415612949576129486128ee565b5b50919050565b7f4552433732313a20617070726f76656420717565727920666f72206e6f6e657860008201527f697374656e7420746f6b656e0000000000000000000000000000000000000000602082015250565b60006129ab602c8361210f565b91506129b68261294f565b604082019050919050565b600060208201905081810360008301526129da8161299e565b9050919050565b7f4552433732313a20617070726f76616c20746f2063757272656e74206f776e6560008201527f7200000000000000000000000000000000000000000000000000000000000000602082015250565b6000612a3d60218361210f565b9150612a48826129e1565b604082019050919050565b60006020820190508181036000830152612a6c81612a30565b9050919050565b7f4552433732313a20617070726f76652063616c6c6572206973206e6f74206f7760008201527f6e6572206e6f7220617070726f76656420666f7220616c6c0000000000000000602082015250565b6000612acf60388361210f565b9150612ada82612a73565b604082019050919050565b60006020820190508181036000830152612afe81612ac2565b9050919050565b600081905092915050565b6000612b1b82612104565b612b258185612b05565b9350612b35818560208601612120565b80840191505092915050565b6000612b4d8284612b10565b915081905092915050565b7f4e487b7100000000000000000000000000000000000000000000000000000000600052603260045260246000fd5b7f4e487b7100000000000000000000000000000000000000000000000000000000600052601160045260246000fd5b6000612bc1826121bf565b91507fffffffffffffffffffffffffffffffffffffffffffffffffffffffffffffffff821415612bf457612bf3612b87565b5b600182019050919050565b7f4552433732313a207472616e736665722063616c6c6572206973206e6f74206f60008201527f776e6572206e6f7220617070726f766564000000000000000000000000000000602082015250565b6000612c5b60318361210f565b9150612c6682612bff565b604082019050919050565b60006020820190508181036000830152612c8a81612c4e565b9050919050565b7f622064612066616c736f20792066616c6c610000000000000000000000000000600082015250565b6000612cc760128361210f565b9150612cd282612c91565b602082019050919050565b60006020820190508181036000830152612cf681612cba565b9050919050565b7f796f752063616e27742062757920697420696620796f75206f776e2069740000600082015250565b6000612d33601e8361210f565b9150612d3e82612cfd565b602082019050919050565b60006020820190508181036000830152612d6281612d26565b9050919050565b7f66756e64732073656e742077726f6e6700000000000000000000000000000000600082015250565b6000612d9f60108361210f565b9150612daa82612d69565b602082019050919050565b60006020820190508181036000830152612dce81612d92565b9050919050565b6000612de0826121bf565b9150612deb836121bf565b9250827fffffffffffffffffffffffffffffffffffffffffffffffffffffffffffffffff03821115612e2057612e1f612b87565b5b828201905092915050565b7f4552433732313a206f776e657220717565727920666f72206e6f6e657869737460008201527f656e7420746f6b656e0000000000000000000000000000000000000000000000602082015250565b6000612e8760298361210f565b9150612e9282612e2b565b604082019050919050565b60006020820190508181036000830152612eb681612e7a565b9050919050565b7f4552433732313a2062616c616e636520717565727920666f7220746865207a6560008201527f726f206164647265737300000000000000000000000000000000000000000000602082015250565b6000612f19602a8361210f565b9150612f2482612ebd565b604082019050919050565b60006020820190508181036000830152612f4881612f0c565b9050919050565b7f656c2068617368207961206573746120656e20656c2061727261790000000000600082015250565b6000612f85601b8361210f565b9150612f9082612f4f565b602082019050919050565b60006020820190508181036000830152612fb481612f78565b9050919050565b6000612fc6826121bf565b9150612fd1836121bf565b925082821015612fe457612fe3612b87565b5b828203905092915050565b7f63616c6c6572206d757374206f776e20676976656e20746f6b656e0000000000600082015250565b6000613025601b8361210f565b915061303082612fef565b602082019050919050565b6000602082019050818103600083015261305481613018565b9050919050565b7f4552433732313a20617070726f766520746f2063616c6c657200000000000000600082015250565b600061309160198361210f565b915061309c8261305b565b602082019050919050565b600060208201905081810360008301526130c081613084565b9050919050565b7f4552433732314d657461646174613a2055524920717565727920666f72206e6f60008201527f6e6578697374656e7420746f6b656e0000000000000000000000000000000000602082015250565b6000613123602f8361210f565b915061312e826130c7565b604082019050919050565b6000602082019050818103600083015261315281613116565b9050919050565b60006131658285612b10565b91506131718284612b10565b91508190509392505050565b7f4552433732313a206f70657261746f7220717565727920666f72206e6f6e657860008201527f697374656e7420746f6b656e0000000000000000000000000000000000000000602082015250565b60006131d9602c8361210f565b91506131e48261317d565b604082019050919050565b60006020820190508181036000830152613208816131cc565b9050919050565b7f4552433732313a207472616e73666572206f6620746f6b656e2074686174206960008201527f73206e6f74206f776e0000000000000000000000000000000000000000000000602082015250565b600061326b60298361210f565b91506132768261320f565b604082019050919050565b6000602082019050818103600083015261329a8161325e565b9050919050565b7f4552433732313a207472616e7366657220746f20746865207a65726f2061646460008201527f7265737300000000000000000000000000000000000000000000000000000000602082015250565b60006132fd60248361210f565b9150613308826132a1565b604082019050919050565b6000602082019050818103600083015261332c816132f0565b9050919050565b7f4552433732313a207472616e7366657220746f206e6f6e20455243373231526560008201527f63656976657220696d706c656d656e7465720000000000000000000000000000602082015250565b600061338f60328361210f565b915061339a82613333565b604082019050919050565b600060208201905081810360008301526133be81613382565b9050919050565b7f4e487b7100000000000000000000000000000000000000000000000000000000600052601260045260246000fd5b60006133ff826121bf565b915061340a836121bf565b92508261341a576134196133c5565b5b828204905092915050565b6000613430826121bf565b915061343b836121bf565b92508261344b5761344a6133c5565b5b828206905092915050565b600081519050919050565b600082825260208201905092915050565b600061347d82613456565b6134878185613461565b9350613497818560208601612120565b6134a081612153565b840191505092915050565b60006080820190506134c06000830187612254565b6134cd6020830186612254565b6134da604083018561257d565b81810360608301526134ec8184613472565b905095945050505050565b60008151905061350681612075565b92915050565b6000602082840312156135225761352161203f565b5b6000613530848285016134f7565b91505092915050565b7f4552433732313a206d696e7420746f20746865207a65726f2061646472657373600082015250565b600061356f60208361210f565b915061357a82613539565b602082019050919050565b6000602082019050818103600083015261359e81613562565b9050919050565b7f4552433732313a20746f6b656e20616c7265616479206d696e74656400000000600082015250565b60006135db601c8361210f565b91506135e6826135a5565b602082019050919050565b6000602082019050818103600083015261360a816135ce565b905091905056fea264697066735822122041ab5f3774020ec9f6ef254d4dd246d239c1e2dc2bd111fef1e4c3d2cd664f6564736f6c63430008090033",
  "immutableReferences": {},
  "source": "//SPDX-License-Identifier: UNLICENSED\n\npragma solidity ^0.8.0;\n\nimport \"./ERC721.sol\";\n\ncontract Photo is ERC721 {\n\n    string[] public photos;\n    mapping(string => bool) _photoExists;\n\n    struct Listing {\n      uint256 price;\n      address seller;\n    }\n    mapping(uint256 => Listing) public listings;\n    mapping(address => uint256) public balances;\n\n    constructor() ERC721(\"Photo\", \"PHOTO\") {}\n\n    function mint(uint256 price, string memory _photo) public {\n      require(!_photoExists[_photo], \"el hash ya esta en el array\");\n      photos.push(_photo);\n      uint tokenID = photos.length -1;                        \n      _safeMint(msg.sender, tokenID);    \n      require(ownerOf(tokenID) == msg.sender, \"caller must own given token\");  //se debera cumplir siempre, quitable tras pruebas\n      listings[tokenID] = Listing(price, msg.sender); \n      _photoExists[_photo] = true;\n    }\n\n    function indexOf(string[] memory arr, string memory searchFor) public pure returns (uint256, bool) {\n      for (uint256 i = 0; i < arr.length; i++) {\n        if ((keccak256(abi.encodePacked(arr[i])) == keccak256(abi.encodePacked(searchFor)))) {\n          return (i, true);\n        }\n      }\n      return (0, false);\n    }\n\n    /*function addListing(uint256 price, string memory _photo) public {\n      (uint256 a, bool b) = indexOf(photos, _photo);\n      require(b, \"b da falso y falla\");\n      uint256 tokenID = a;\n\n      require(ownerOf(tokenID) == msg.sender, \"caller must own given token\");\n      listings[tokenID] = Listing(price, msg.sender);\n    }*/\n\n    function purchase(string memory _photo) public payable {  \n      (uint256 a, bool b) = indexOf(photos, _photo);\n      require(b, \"b da falso y falla\");\n      uint256 tokenID = a;\n\n      Listing memory item = listings[tokenID];\n      require(ownerOf(tokenID) != msg.sender, \"you can't buy it if you own it\");  \n      require(msg.value == item.price, \"funds sent wrong\");    \n      balances[item.seller] += msg.value;                   \n\n      safeTransferFrom(item.seller, msg.sender, tokenID);\n      listings[tokenID] = Listing(item.price, msg.sender);\n\n      address payable Seller = payable(item.seller);\n      require(Seller.send(msg.value));\n    }\n}",
  "sourcePath": "/Users/lucia/Desktop/nft0/dapp/src/contracts/Photo.sol",
  "compiler": {
    "name": "solc",
    "version": "0.8.9+commit.e5eed63a.Emscripten.clang"
  },
  "schemaVersion": "3.4.3",
  "updatedAt": "2022-02-27T09:12:41.473Z",
  "networkType": "ethereum",
  "devdoc": {
    "kind": "dev",
    "methods": {},
    "version": 1
  },
  "userdoc": {
    "kind": "user",
    "methods": {},
    "version": 1
  }
}